:1000000000308A00B72B00000A108A100A118207FC
:1000100028340C34013406340A108A100A1182077D
:100020003734383439342F343434353436342A3490
:100030003134323433342D34433430343D342B3482
:100040000A108A100A1182070C34203445346C34AB
:1000500069346A346134203475346E342034703439
:1000600072346F3464347534633474346F340034F0
:100070000A108A100A1182070C3420344134673484
:100080007534613420345034563450343D34313476
:1000900000340A108A100A1182070C345034753467
:1000A00065346434653420347234653474346934AE
:1000B00072346134723400340A108A100A118207D3
:1000C0000A34203465346C3420347034723464342F
:1000D0007534633474346F3400340A108A100A1192
:1000E00082070C342034433468346F3463346F3403
:1000F0006C34613474342E345034563450343D34BE
:10010000323400340A108A100A1182070C34203469
:100110005A3475346D346F3420345034563450347E
:100120003D34333400340A108A100A1182070C342B
:10013000203462346134723472346934743461341A
:1001400020345034563450343D34343400340A10A2
:100150008A100A1182070C34203463346F346334FC
:1001600061342D3463346F346C3461342034503452
:10017000563450343D34353400340A108A100A1194
:1001800082070C342034463461346E3474342E3497
:100190006C3469346D346F346E34503456345034AA
:1001A0003D34363400340A108A100A1182070C34A8
:1001B0002034463461346E3474342E346E346134F9
:1001C000723461346E346A345034563450343D34B1
:1001D000373400340A108A100A1182070C34203494
:1001E0006134713475346134723469347534733404
:1001F0005034563450343D34383400340A148A10A4
:100200000A1182070C342034703461347434613440
:100210007434613473345034563450343D3439348A
:100220000034293084008313000803192529013084
:10023000F800F701F70B1A29F80B19294A30F700D3
:10024000F70B20292329800B17290034300EF039B1
:10025000F7000F30060577048600000006143029E9
:10026000061000348610F0308316860083120615BF
:100270000000061400000608060E0F39B000061034
:100280000000061400000608060E0F39AF00061025
:100290000030831686008312300EF700F030F70529
:1002A00077082F04F8007808AF00AF1B33292D1C06
:1002B00086102D18861400000611000006102E0E60
:1002C000AF000F30AF052F08B00026212E080F39E0
:1002D000AF00B00026210034003083168600831260
:1002E0008610061106100F30A90011210130A70059
:1002F0002708033C031C84290330B0002621053065
:10030000A9001121A70A78290230B0002621A701EF
:100310002708033C031C952927080420A800AD01E9
:100320002808AE003221A70A88298A110A12CB2B8D
:10033000A701831681130F3086008312A708031DBF
:10034000E629EF308600A8012808033C031CE529B4
:10035000280BAC29DF3086002808023C031DB22997
:10036000BF3086002808033C031DB8297F30860073
:10037000A9012908033C031CE3290608F700290802
:10038000F8000319C7290310F70CF80BC3297718D5
:10039000E1290608F7002908F8000319D3290310FA
:1003A000F70CF80BCF29771CC929280DF700F70D9A
:1003B000FC30F705770829070C20F800A700F800A3
:1003C000E629A90AB929A80AA4299E2900342808DF
:1003D0000C3A0319F229063A0319FA29023A0319C9
:1003E000102A152AAD010130AE0032210230A900D9
:1003F00011211B2A0130A9000230AA002A0B012A70
:10040000042A4030AB00052AAB0101302902AB07BA
:100410002B088038AC00AD012C08AE0032211B2A1D
:10042000AD011030AE0032211B2A0130AD0028088A
:10043000AE0032211B2A00348E30F7002808F80065
:100440002708F900FA01F808031D302A7908F80096
:10045000F9010830F702F808031D302AF701382A9D
:100460000310F81B372AF90DF80DF703302AF8139B
:10047000003427080319A92AAF002B080319A92A59
:10048000AF0703184A2A7F30AF02031CA92A0319B9
:10049000A92A4E2A8130AF070318A92A2F08F7008E
:1004A000F801F901FA012808B300B3172908B200CE
:1004B0002A08B1001830AF00B001311C772A2E088D
:1004C000FA07031C692AF90A031D692AF80A0319A5
:1004D000B0172D08F907031C702AF80A0319B01782
:1004E0002C08A900A9172908F8070318B017B00DA0
:1004F000F80CF90CFA0CB30CB20CB10C0310AF0BE6
:100500005C2A0130F7070318A92AF81B8E2AB30DBD
:10051000FA0DF90DF80DF7030319A92AB31F9F2A45
:10052000FA0A031D9F2AF90A031D9F2AF80A031DD0
:100530009F2AF80CF90CFA0CF70A0319A92A2808C3
:10054000B0002C08B006B01FA72AF817AD2AF81380
:10055000AD2AF701F801F901FA0100342B0803195B
:10056000732BB7002F080319732BB702031CBD2A86
:100570007F30B7070318732BC32A8130B702031CDF
:10058000732B0319732B3708F700F801F901FA01EF
:10059000B6012C08B500B5172D08B4002E08B3001D
:1005A0001930B7003208B3020318E62A0130B4024A
:1005B0000318E62AB5020318E62AB6020318E62A4B
:1005C000B60AB50AB40A3208B307182B3108B402C8
:1005D0000318012B0130B5020318012BB6020318D2
:1005E000012BB60AB50A3108B4073208B307031C59
:1005F000182BB40A031D182BB50A031D182BB60AB5
:10060000182B30088038B5020318172B0130B602BA
:100610000318172BB60A30088038B5073108B4071D
:10062000031CF52AB50A031DF52AB60AF52A7A1421
:10063000B70B1B2B262B0310B30DB40DB50DB60D48
:100640000310FA0DF90DF80DB80DD22A381C2E2B17
:100650000310F80CF90CFA0CB80C312BF703031942
:10066000732BB81B5A2B0310B30DB40DB50DB60D7B
:100670003208B3020318462B0130B4020318462B8C
:10068000B5020318462BB602031C692B3108B402CD
:100690000318512B0130B5020318512BB602031C6D
:1006A000692B30088038B50203185A2B0130B60286
:1006B000031C692BFA0A031D692BF90A031D692B18
:1006C000F80A031D692BF70A0319732BF80CF90CB0
:1006D000FA0C2C08B7003008B706B71F712BF817B3
:1006E000772BF813772BF701F801F901FA010034A1
:1006F0002808AF002C08AF06AF1F832B031103108F
:10070000A81B0314B62B2808AF002B08B00027083D
:10071000B0020319912BAF1FB62B0308013A8300D7
:10072000B62B2C08B0002808B00203199D2BAF1F70
:10073000B62B0308013A8300B62B2D08B000290818
:10074000B0020319A92BAF1FB62B0308013A83008F
:10075000B62B2E08B0002A08B0020319B52BAF1F24
:10076000B62B0308013A8300B62B03100034840132
:1007700083131F308305193083169900A630980023
:1007800090308312980083161F149F141F159F1119
:10079000811383126C299821A201A7012708202028
:1007A000A70AF700A800E72113302702031DCE2B6C
:1007B0000230A700FA30A9001121A70BDA2BA208FA
:1007C000031DE62B98217808A200DF2B313022028E
:1007D000F73E0318E82F093EEB2FA7012708382022
:1007E000A70AF700A800E7210C302702031DEE2B13
:1007F0000430A700FA30A9001121A70BFA2B1F150E
:100800001F19002C1E08A101A0000A30A900112107
:100810002108A8002008A7001C227A08AA0079084D
:10082000A9007808A8007708A700AE01AD01203024
:10083000AC008130AB0039227708A7007808A80007
:100840007908A9007A08AA00AE007908AD007808F6
:10085000AC007708AB00B201C030B1007F30B0000F
:100860008830AF00AE227A08A6007908A500780883
:10087000A4007708A300AA01A9014030A800803095
:10088000A7002608AE002508AD002408AC00230808
:10089000AB0078230318612C0319612C2608AA00E9
:1008A0002508A9002408A8002308A7002930AE00C5
:1008B0005C30AD007F30AC008030AB007823031C8F
:1008C000612CA70127084920A70AF700A800E72103
:1008D0000E302702031D622CA70127085C20A70AFF
:1008E000F700A800E7210C302702031D6D2CE82F2C
:1008F000A70127086D20A70AF700A800E7211030FC
:100900002702031D792C1F151F19842C1E08A10115
:10091000A0000A30A90011212108A8002008A70082
:100920001C227A08AA007908A9007808A80077088C
:10093000A700AE01AD012030AC008130AB00392200
:100940007708A7007808A8007908A9007A08AA0003
:10095000AE007908AD007808AC007708AB00B201B2
:10096000C030B1007F30B0008830AF00AE227A08CE
:10097000A6007908A5007808A4007708A300260837
:10098000AA002508A9002408A8002308A700AE0192
:10099000AD01AC018030AB007823031DCF2CA70143
:1009A00027084920A70AF700A800E7210E302702F0
:1009B000031DD02CA70127085C20A70AF700A80078
:1009C000E7210C302702031DDB2CE82FA7012708A5
:1009D0008220A70AF700A800E7210C302702031D98
:1009E000E72C1F151F19F22C1E08A101A0000A30C8
:1009F000A90011212108A8002008A7001C227A08BC
:100A0000AA007908A9007808A8007708A700AE0115
:100A1000AD012030AC008130AB0039227708A7004F
:100A20007808A8007908A9007A08AA00AE00790819
:100A3000AD007808AC007708AB00B201C030B1005F
:100A40007F30B0008830AF00AE227A08A600790867
:100A5000A5007808A4007708A3002608AA002508A6
:100A6000A9002408A8002308A700AE01AD01AC012D
:100A70008030AB007823031D3D2DA70127084920B6
:100A8000A70AF700A800E7210E302702031D3E2D1C
:100A9000A70127085C20A70AF700A800E7210C306F
:100AA0002702031D492DE82FA70127089320A70A35
:100AB000F700A800E7210F302702031D552D1F1551
:100AC0001F19602D1E08A101A0000A30A9001121E4
:100AD0002108A8002008A7001C227A08AA0079088B
:100AE000A9007808A8007708A700AE01AD01203062
:100AF000AC008130AB0039227708A7007808A80045
:100B00007908A9007A08AA00AE007908AD00780833
:100B1000AC007708AB00B201C030B1007F30B0004C
:100B20008830AF00AE227A08A6007908A5007808C0
:100B3000A4007708A3002608AA002508A900240815
:100B4000A8002308A700AE01AD01AC018030AB00C6
:100B50007823031DAB2DA70127084920A70AF7001A
:100B6000A800E7210E302702031DAC2DA70127089E
:100B70005C20A70AF700A800E7210C302702031D1C
:100B8000B72DE82FA7012708A720A70AF700A8007C
:100B9000E72111302702031DC32D1F151F19CE2D6C
:100BA0001E08A101A0000A30A90011212108A800F7
:100BB0002008A7001C227A08AA007908A900780852
:100BC000A8007708A700AE01AD012030AC0081304D
:100BD000AB0039227708A7007808A8007908A90097
:100BE0007A08AA00AE007908AD007808AC00770852
:100BF000AB00B201C030B1007F30B0008830AF0030
:100C0000AE227A08A6007908A5007808A400770823
:100C1000A3002608AA002508A9002408A800230884
:100C2000A700AE01AD01AC018030AB007823031DFD
:100C3000192EA70127084920A70AF700A800E721D5
:100C40000E302702031D1A2EA70127085C20A70AD1
:100C5000F700A800E7210C302702031D252EE82FFE
:100C6000A7012708BD20A70AF700A800E721113037
:100C70002702031D312E1F151F193C2E1E08A1012E
:100C8000A0000A30A90011212108A8002008A7000F
:100C90001C227A08AA007908A9007808A800770819
:100CA000A700AE01AD012030AC008130AB0039228D
:100CB0007708A7007808A8007908A9007A08AA0090
:100CC000AE007908AD007808AC007708AB00B2013F
:100CD000C030B1007F30B0008830AF00AE227A085B
:100CE000A6007908A5007808A4007708A3002608C4
:100CF000AA002508A9002408A8002308A700AE011F
:100D0000AD01AC018030AB007823031D872EA70115
:100D100027084920A70AF700A800E7210E3027027C
:100D2000031D882EA70127085C20A70AF700A8004A
:100D3000E7210C302702031D932EE82FA701270877
:100D4000D320A70AF700A800E72112302702031DCD
:100D50009F2E1F151F19AA2E1E08A101A0000A30E0
:100D6000A90011212108A8002008A7001C227A0848
:100D7000AA007908A9007808A8007708A700AE01A2
:100D8000AD012030AC008130AB0039227708A700DC
:100D90007808A8007908A9007A08AA00AE007908A6
:100DA000AD007808AC007708AB00B201C030B100EC
:100DB0007F30B0008830AF00AE227A08A6007908F4
:100DC000A5007808A4007708A3002608AA00250833
:100DD000A9002408A8002308A700AE01AD01AC01BA
:100DE0008030AB007823031DF52EA701270849208A
:100DF000A70AF700A800E7210E302702031DF62EF0
:100E0000A70127085C20A70AF700A800E7210C30FB
:100E10002702031D012FE82FA7012708EA20A70AB0
:100E2000F700A800E7210F302702031D0D2F1F1523
:100E30001F19182F1E08A101A0000A30A9001121B6
:100E40002108A8002008A7001C227A08AA00790817
:100E5000A9007808A8007708A700AE01AD012030EE
:100E6000AC008130AB0039227708A7007808A800D1
:100E70007908A9007A08AA00AE007908AD007808C0
:100E8000AC007708AB00B201C030B1007F30B000D9
:100E90008830AF00AE227A08A6007908A50078084D
:100EA000A4007708A3002608AA002508A9002408A2
:100EB000A8002308A700AE01AD01AC018030AB0053
:100EC0007823031D632FA70127084920A70AF700ED
:100ED000A800E7210E302702031D642FA701270871
:100EE0005C20A70AF700A800E7210C302702031DA9
:100EF0006F2FE82FA7012708FE20A70AF700A800F8
:100F0000E7210E302702031D7B2F1F151F19862F87
:100F10001E08A101A0000A30A90011212108A80083
:100F20002008A7001C227A08AA007908A9007808DE
:100F3000A8007708A700AE01AD012030AC008130D9
:100F4000AB0039227708A7007808A8007908A90023
:100F50007A08AA00AE007908AD007808AC007708DE
:100F6000AB00B201C030B1007F30B0008830AF00BC
:100F7000AE227A08A6007908A5007808A4007708B0
:100F8000A3002608AA002508A9002408A800230811
:100F9000A700AE01AD01AC018030AB007823031D8A
:100FA000D12FA70127084920A70AF700A800E721A9
:100FB0000E302702031DD22FA70127085C20A70AA5
:100FC000F700A800E7210C302702031DDD2FE82FD2
:100FD0008316C82B63000A148A140A158207ED2BA6
:100FE000782CE62C542DC22D302E9E2E0C2F7A2FCD
:02400E00393F38
:00000001FF
;PIC16F876
