:1000000000308A008E2B0000FF00030E8301A10048
:100010000A08A0008A010408A2007708A300780853
:10002000A4007908A5007A08A6007B08A70083131E
:1000300083120B1E1D288B183028220884002308E9
:10004000F7002408F8002508F9002608FA00270818
:10005000FB0020088A00210E8300FF0E7F0E09009E
:100060008A110A12DC280A108A100A118207283421
:100070000C34013406340A108A100A118207313414
:100080003234333434343534363437343834393424
:100090002A34303423340A108A100A1182070C34AF
:1000A0002034503475346C347334653420347534F2
:1000B0006E34613420347434653463346C346134A8
:1000C00000340A108A100A1182070C34203441349B
:1000D00067347534613400340A108A100A118207BB
:1000E0000C342034433468346F3463346F346C34EC
:1000F0006134743469346E34613400340A108A1007
:100100000A1182070C3420345A3475346D346F343C
:1001100000340A108A100A1182070C342034433448
:100120006F3463346134203463346F346C3461343D
:1001300000340A108A100A1182070C3420344E341D
:100140006134723461346E346A34613400340A10BC
:100150008A100A1182070C3420344C3469346D340F
:100160006F346E3400340A108A100A1182070C347E
:10017000203443346834693463346C346534733404
:1001800000340A108A100A1182070C3420344334D8
:1001900068347534633468346534733400340A1059
:1001A0008A100A1182070C342034463472346934C0
:1001B00074346F34733400348B108A110A121D2882
:1001C00036308400831300080319F4280130F80046
:1001D000F701F70BE928F80BE8284A30F700F70B8E
:1001E000EF28F228800BE62800343D0EF039F700A6
:1001F0000F3006057704860000000614FF2806105D
:1002000000348610F0308316860083120615000035
:10021000061400000608060E0F39BD000610000087
:10022000061400000608060E0F39BC000610003048
:100230008316860083123D0EF700F030F70577082D
:100240003C04F8007808BC00BC1B02293A1C86104C
:100250003A18861400000611000006103B0EBC0080
:100260000F30BC053C08BD00F5203B080F39BC0031
:10027000BD00F520003400308316860083128610FE
:10028000061106100F30B600E0200130B40034082B
:10029000033C031C53290330BD00F5200530B60094
:1002A000E020B40A47290230BD00F520B40134082B
:1002B000033C031C642934083320B500BA01350817
:1002C000BB000121B40A572900348E30F7003508ED
:1002D000F8003408F900FA01F808031D79297908B3
:1002E000F800F9010830F702F808031D7929F70131
:1002F00081290310F81B8029F90DF80DF7037929DE
:10030000F8138A110A12CE2B34080319F429BC0001
:1003100038080319F429BC07031895297F30BC025B
:10032000031CF4290319F42999298130BC07031807
:10033000F4293C08F700F801F901FA013508C0007A
:10034000C0173608BF003708BE001830BC00BD011A
:100350003E1CC2293B08FA07031CB429F90A031DF5
:10036000B429F80A0319BD173A08F907031CBB2979
:10037000F80A0319BD173908B600B6173608F8078A
:100380000318BD17BD0DF80CF90CFA0CC00CBF0C0E
:10039000BE0C0310BC0BA7290130F7070318F42982
:1003A000F81BD929C00DFA0DF90DF80DF703031943
:1003B000F429C01FEA29FA0A031DEA29F90A031DD4
:1003C000EA29F80A031DEA29F80CF90CFA0CF70AD5
:1003D0000319F4293508BD003908BD06BD1FF229EF
:1003E000F817F829F813F829F701F801F901FA01CB
:1003F0008A110A12DD2B38080319C02AC4003C08F0
:100400000319C02AC402031C0A2A7F30C407031838
:10041000C02A102A8130C402031CC02A0319C02A32
:100420004408F700F801F901FA01C3013908C200D4
:10043000C2173A08C1003B08C0001930C4003F0889
:10044000C0020318332A0130C1020318332AC20242
:100450000318332AC3020318332AC30AC20AC10A83
:100460003F08C007652A3E08C10203184E2A013022
:10047000C20203184E2AC30203184E2AC30AC20A34
:100480003E08C1073F08C007031C652AC10A031DB7
:10049000652AC20A031D652AC30A652A3D088038F9
:1004A000C2020318642A0130C3020318642AC30A73
:1004B0003D088038C2073E08C107031C422AC20A11
:1004C000031D422AC30A422A7A14C40B682A732ADB
:1004D0000310C00DC10DC20DC30D0310FA0DF90DAF
:1004E000F80DC50D1F2A451C7B2A0310F80CF90CCA
:1004F000FA0CC50C7E2AF7030319C02AC51BA72ACC
:100500000310C00DC10DC20DC30D3F08C00203187A
:10051000932A0130C1020318932AC2020318932AB6
:10052000C302031CB62A3E08C10203189E2A0130EA
:10053000C20203189E2AC302031CB62A3D08803853
:10054000C2020318A72A0130C302031CB62AFA0A02
:10055000031DB62AF90A031DB62AF80A031DB62A96
:10056000F70A0319C02AF80CF90CFA0C3908C40070
:100570003D08C406C41FBE2AF817C42AF813C42AAB
:10058000F701F801F901FA018A110A12F42B370B6D
:10059000CA2ACD2A4030B800CE2AB801013036022E
:1005A000B80738088038B900BA013908BB00012102
:1005B00000348A110A12052C35080C3A0319E72A6F
:1005C000063A0319EF2A023A0319F52AFA2ABA0160
:1005D0000130BB0001210230B600E020002B0130C9
:1005E000B6000230B700C722002BBA011030BB00A2
:1005F0000121002B0130BA003508BB000121002B7E
:100600000034F701F801360803103718F707F70C24
:10061000F80CB718F707F70CF80C3719F707F70CB1
:10062000F80CB719F707F70CF80C371AF707F70C9F
:10063000F80CB71AF707F70CF80C371BF707F70C8D
:10064000F80CB71BF707F70CF80C8A110A127A2B73
:10065000B401A80A2808213C0318872B2B0803198A
:10066000382B013A03193E2B033A0319442B4A2B2A
:10067000DE3083168600831286004A2BBE30831636
:100680008600831286004A2B7E30831686008312F2
:1006900086004A2B291C562B06081E391E3C031DBA
:1006A000552B29102A08B400AA01862B06081E39EA
:1006B0001E3C0319812B06080239031D612BB5016D
:1006C000752B06080439031D682B0130B500752B06
:1006D00006080839031D6F2B0230B500752B06087C
:1006E0001039031D752B0330B5003508B6000330F3
:1006F000B700012B2B0878073B20F800AA0029142B
:10070000862BAB0A2B08033C0319AB01A801FE3072
:100710008316860083123408F800003484018313A2
:100720001F308305193083169900A6309800903049
:100730008312980083161F149F141F159F11831294
:10074000A8012910AA01AB013B2183161F109F1499
:100750001F159F1583121F179F1783169F13831250
:100760001F140030F8001F08C73978049F00831653
:100770000108C7390838810083120B16C0308B047A
:100780001F151F19C12B1E08AF01AE001430B60093
:10079000E0202F08B5002E08B40065297A08B700BC
:1007A0007908B6007808B5007708B400BB01BA0133
:1007B0002030B9008130B80084297708B400780867
:1007C000B5007908B6007A08B700BB007908BA000E
:1007D0007808B9007708B800BF01C030BE007F308C
:1007E000BD008830BC00FB297A08B3007908B2004C
:1007F0007808B1007708B0000130B600B700C72212
:100800008316811383123B21D92AAC01B401340829
:100810004B20B40AF700B500DC2211303402031D6E
:10082000072CAC08031D182C28237808AC00112CC9
:10083000B40134086120B40AF700B500DC220630A8
:100840003402031D192C0430B400FA30B600E02045
:10085000B40B252CAC08031D312C28237808AC00E0
:100860002A2CB40134086C20B40AF700B500DC224D
:100870000D303402031D322C0430B400FA30B600BF
:10088000E020B40B3E2CAC08031D4A2C282378082A
:10089000AC00432CB40134087E20B40AF700B50044
:1008A000DC2206303402031D4B2C0430B400FA3035
:1008B000B600E020B40B572CAC08031D632C282392
:1008C0007808AC005C2CB40134088920B40AF70025
:1008D000B500DC220B303402031D642C0430B4005C
:1008E000FA30B600E020B40B702CAC08031D7C2C51
:1008F00028237808AC00752CB40134089920B40A78
:10090000F700B500DC2209303402031D7D2C0430D1
:10091000B400FA30B600E020B40B892CAC08031DFB
:10092000952C28237808AC008E2CB4013408A7201D
:10093000B40AF700B500DC2207303402031D962C00
:100940000430B400FA30B600E020B40BA22CAC089E
:10095000031DAE2C28237808AC00A72CB401340862
:10096000B320B40AF700B500DC2209303402031DBD
:10097000AF2C0430B400FA30B600E020B40BBB2C2E
:10098000AC08031DC72C28237808AC00C02CB40188
:100990003408C120B40AF700B500DC220930340263
:1009A000031DC82C0430B400FA30B600E020B40BAC
:1009B000D42CAC08031DE02C28237808AC00D92CDB
:1009C000B4013408CF20B40AF700B500DC220830A7
:1009D0003402031DE12C0430B400FA30B600E020EC
:0809E000B40BED2CC02B6300E9
:02400E00393F38
:00000001FF
;PIC16F876
